{
  "_format": "hh-sol-artifact-1",
  "contractName": "ConsentRegistry",
  "sourceName": "contracts/ConsentRegistry.sol",
  "abi": [
    {
      "anonymous": false,
      "inputs": [
        {
          "indexed": true,
          "internalType": "address",
          "name": "user",
          "type": "address"
        },
        {
          "indexed": true,
          "internalType": "address",
          "name": "company",
          "type": "address"
        },
        {
          "indexed": false,
          "internalType": "string",
          "name": "dataType",
          "type": "string"
        },
        {
          "indexed": false,
          "internalType": "string",
          "name": "purpose",
          "type": "string"
        },
        {
          "indexed": false,
          "internalType": "uint256",
          "name": "expiresAt",
          "type": "uint256"
        }
      ],
      "name": "ConsentGiven",
      "type": "event"
    },
    {
      "anonymous": false,
      "inputs": [
        {
          "indexed": true,
          "internalType": "address",
          "name": "user",
          "type": "address"
        },
        {
          "indexed": true,
          "internalType": "address",
          "name": "company",
          "type": "address"
        },
        {
          "indexed": false,
          "internalType": "uint256",
          "name": "revokedAt",
          "type": "uint256"
        }
      ],
      "name": "ConsentRevoked",
      "type": "event"
    },
    {
      "inputs": [
        {
          "internalType": "address",
          "name": "user",
          "type": "address"
        },
        {
          "internalType": "address",
          "name": "company",
          "type": "address"
        }
      ],
      "name": "checkConsent",
      "outputs": [
        {
          "internalType": "bool",
          "name": "",
          "type": "bool"
        }
      ],
      "stateMutability": "view",
      "type": "function"
    },
    {
      "inputs": [
        {
          "internalType": "address",
          "name": "",
          "type": "address"
        },
        {
          "internalType": "address",
          "name": "",
          "type": "address"
        }
      ],
      "name": "consents",
      "outputs": [
        {
          "internalType": "string",
          "name": "dataType",
          "type": "string"
        },
        {
          "internalType": "string",
          "name": "purpose",
          "type": "string"
        },
        {
          "internalType": "uint256",
          "name": "grantedAt",
          "type": "uint256"
        },
        {
          "internalType": "uint256",
          "name": "expiresAt",
          "type": "uint256"
        },
        {
          "internalType": "bool",
          "name": "isActive",
          "type": "bool"
        }
      ],
      "stateMutability": "view",
      "type": "function"
    },
    {
      "inputs": [
        {
          "internalType": "address",
          "name": "user",
          "type": "address"
        },
        {
          "internalType": "address",
          "name": "company",
          "type": "address"
        }
      ],
      "name": "getConsent",
      "outputs": [
        {
          "components": [
            {
              "internalType": "string",
              "name": "dataType",
              "type": "string"
            },
            {
              "internalType": "string",
              "name": "purpose",
              "type": "string"
            },
            {
              "internalType": "uint256",
              "name": "grantedAt",
              "type": "uint256"
            },
            {
              "internalType": "uint256",
              "name": "expiresAt",
              "type": "uint256"
            },
            {
              "internalType": "bool",
              "name": "isActive",
              "type": "bool"
            }
          ],
          "internalType": "struct ConsentRegistry.Consent",
          "name": "",
          "type": "tuple"
        }
      ],
      "stateMutability": "view",
      "type": "function"
    },
    {
      "inputs": [
        {
          "internalType": "address",
          "name": "company",
          "type": "address"
        },
        {
          "internalType": "string",
          "name": "dataType",
          "type": "string"
        },
        {
          "internalType": "string",
          "name": "purpose",
          "type": "string"
        },
        {
          "internalType": "uint256",
          "name": "durationInDays",
          "type": "uint256"
        }
      ],
      "name": "giveConsent",
      "outputs": [],
      "stateMutability": "nonpayable",
      "type": "function"
    },
    {
      "inputs": [
        {
          "internalType": "address",
          "name": "user",
          "type": "address"
        },
        {
          "internalType": "address",
          "name": "company",
          "type": "address"
        }
      ],
      "name": "isExpired",
      "outputs": [
        {
          "internalType": "bool",
          "name": "",
          "type": "bool"
        }
      ],
      "stateMutability": "view",
      "type": "function"
    },
    {
      "inputs": [
        {
          "internalType": "address",
          "name": "company",
          "type": "address"
        }
      ],
      "name": "revokeConsent",
      "outputs": [],
      "stateMutability": "nonpayable",
      "type": "function"
    }
  ],
  "bytecode": "0x608060405234801561001057600080fd5b5061146f806100206000396000f3fe608060405234801561001057600080fd5b50600436106100625760003560e01c80631ab64e4b146100675780636290319a146100975780636ceb3b08146100c75780639051aad2146100e3578063ae83af5514610113578063d1a4862714610147575b600080fd5b610081600480360381019061007c9190610b36565b610163565b60405161008e9190610b91565b60405180910390f35b6100b160048036038101906100ac9190610b36565b61035f565b6040516100be9190610b91565b60405180910390f35b6100e160048036038101906100dc9190610d28565b6103ea565b005b6100fd60048036038101906100f89190610b36565b610580565b60405161010a9190610ee1565b60405180910390f35b61012d60048036038101906101289190610b36565b610769565b60405161013e959493929190610f5c565b60405180910390f35b610161600480360381019061015c9190610fbd565b6108c9565b005b6000806000808573ffffffffffffffffffffffffffffffffffffffff1673ffffffffffffffffffffffffffffffffffffffff16815260200190815260200160002060008473ffffffffffffffffffffffffffffffffffffffff1673ffffffffffffffffffffffffffffffffffffffff1681526020019081526020016000206040518060a00160405290816000820180546101fc90611019565b80601f016020809104026020016040519081016040528092919081815260200182805461022890611019565b80156102755780601f1061024a57610100808354040283529160200191610275565b820191906000526020600020905b81548152906001019060200180831161025857829003601f168201915b5050505050815260200160018201805461028e90611019565b80601f01602080910402602001604051908101604052809291908181526020018280546102ba90611019565b80156103075780601f106102dc57610100808354040283529160200191610307565b820191906000526020600020905b8154815290600101906020018083116102ea57829003601f168201915b5050505050815260200160028201548152602001600382015481526020016004820160009054906101000a900460ff161515151581525050905080608001518015610356575080606001514211155b91505092915050565b60008060008473ffffffffffffffffffffffffffffffffffffffff1673ffffffffffffffffffffffffffffffffffffffff16815260200190815260200160002060008373ffffffffffffffffffffffffffffffffffffffff1673ffffffffffffffffffffffffffffffffffffffff168152602001908152602001600020600301544211905092915050565b600062015180826103fb9190611079565b4261040691906110bb565b90506040518060a00160405280858152602001848152602001428152602001828152602001600115158152506000803373ffffffffffffffffffffffffffffffffffffffff1673ffffffffffffffffffffffffffffffffffffffff16815260200190815260200160002060008773ffffffffffffffffffffffffffffffffffffffff1673ffffffffffffffffffffffffffffffffffffffff16815260200190815260200160002060008201518160000190816104c2919061129b565b5060208201518160010190816104d8919061129b565b50604082015181600201556060820151816003015560808201518160040160006101000a81548160ff0219169083151502179055509050508473ffffffffffffffffffffffffffffffffffffffff163373ffffffffffffffffffffffffffffffffffffffff167fda8c34cc197f5183f7c6424675e48c4a366978879f1661c69f2c1737f8e8b2548686856040516105719392919061136d565b60405180910390a35050505050565b610588610a93565b6000808473ffffffffffffffffffffffffffffffffffffffff1673ffffffffffffffffffffffffffffffffffffffff16815260200190815260200160002060008373ffffffffffffffffffffffffffffffffffffffff1673ffffffffffffffffffffffffffffffffffffffff1681526020019081526020016000206040518060a001604052908160008201805461061e90611019565b80601f016020809104026020016040519081016040528092919081815260200182805461064a90611019565b80156106975780601f1061066c57610100808354040283529160200191610697565b820191906000526020600020905b81548152906001019060200180831161067a57829003601f168201915b505050505081526020016001820180546106b090611019565b80601f01602080910402602001604051908101604052809291908181526020018280546106dc90611019565b80156107295780601f106106fe57610100808354040283529160200191610729565b820191906000526020600020905b81548152906001019060200180831161070c57829003601f168201915b5050505050815260200160028201548152602001600382015481526020016004820160009054906101000a900460ff161515151581525050905092915050565b60006020528160005260406000206020528060005260406000206000915091505080600001805461079990611019565b80601f01602080910402602001604051908101604052809291908181526020018280546107c590611019565b80156108125780601f106107e757610100808354040283529160200191610812565b820191906000526020600020905b8154815290600101906020018083116107f557829003601f168201915b50505050509080600101805461082790611019565b80601f016020809104026020016040519081016040528092919081815260200182805461085390611019565b80156108a05780601f10610875576101008083540402835291602001916108a0565b820191906000526020600020905b81548152906001019060200180831161088357829003601f168201915b5050505050908060020154908060030154908060040160009054906101000a900460ff16905085565b6000803373ffffffffffffffffffffffffffffffffffffffff1673ffffffffffffffffffffffffffffffffffffffff16815260200190815260200160002060008273ffffffffffffffffffffffffffffffffffffffff1673ffffffffffffffffffffffffffffffffffffffff16815260200190815260200160002060040160009054906101000a900460ff16610994576040517f08c379a000000000000000000000000000000000000000000000000000000000815260040161098b906113fe565b60405180910390fd5b60008060003373ffffffffffffffffffffffffffffffffffffffff1673ffffffffffffffffffffffffffffffffffffffff16815260200190815260200160002060008373ffffffffffffffffffffffffffffffffffffffff1673ffffffffffffffffffffffffffffffffffffffff16815260200190815260200160002060040160006101000a81548160ff0219169083151502179055508073ffffffffffffffffffffffffffffffffffffffff163373ffffffffffffffffffffffffffffffffffffffff167fb975ee8b7b7c48fd313db9b5ca976e213d1d7bd3136fc5c926dd5ff00077e47f42604051610a88919061141e565b60405180910390a350565b6040518060a00160405280606081526020016060815260200160008152602001600081526020016000151581525090565b6000604051905090565b600080fd5b600080fd5b600073ffffffffffffffffffffffffffffffffffffffff82169050919050565b6000610b0382610ad8565b9050919050565b610b1381610af8565b8114610b1e57600080fd5b50565b600081359050610b3081610b0a565b92915050565b60008060408385031215610b4d57610b4c610ace565b5b6000610b5b85828601610b21565b9250506020610b6c85828601610b21565b9150509250929050565b60008115159050919050565b610b8b81610b76565b82525050565b6000602082019050610ba66000830184610b82565b92915050565b600080fd5b600080fd5b6000601f19601f8301169050919050565b7f4e487b7100000000000000000000000000000000000000000000000000000000600052604160045260246000fd5b610bff82610bb6565b810181811067ffffffffffffffff82111715610c1e57610c1d610bc7565b5b80604052505050565b6000610c31610ac4565b9050610c3d8282610bf6565b919050565b600067ffffffffffffffff821115610c5d57610c5c610bc7565b5b610c6682610bb6565b9050602081019050919050565b82818337600083830152505050565b6000610c95610c9084610c42565b610c27565b905082815260208101848484011115610cb157610cb0610bb1565b5b610cbc848285610c73565b509392505050565b600082601f830112610cd957610cd8610bac565b5b8135610ce9848260208601610c82565b91505092915050565b6000819050919050565b610d0581610cf2565b8114610d1057600080fd5b50565b600081359050610d2281610cfc565b92915050565b60008060008060808587031215610d4257610d41610ace565b5b6000610d5087828801610b21565b945050602085013567ffffffffffffffff811115610d7157610d70610ad3565b5b610d7d87828801610cc4565b935050604085013567ffffffffffffffff811115610d9e57610d9d610ad3565b5b610daa87828801610cc4565b9250506060610dbb87828801610d13565b91505092959194509250565b600081519050919050565b600082825260208201905092915050565b60005b83811015610e01578082015181840152602081019050610de6565b60008484015250505050565b6000610e1882610dc7565b610e228185610dd2565b9350610e32818560208601610de3565b610e3b81610bb6565b840191505092915050565b610e4f81610cf2565b82525050565b610e5e81610b76565b82525050565b600060a0830160008301518482036000860152610e818282610e0d565b91505060208301518482036020860152610e9b8282610e0d565b9150506040830151610eb06040860182610e46565b506060830151610ec36060860182610e46565b506080830151610ed66080860182610e55565b508091505092915050565b60006020820190508181036000830152610efb8184610e64565b905092915050565b600082825260208201905092915050565b6000610f1f82610dc7565b610f298185610f03565b9350610f39818560208601610de3565b610f4281610bb6565b840191505092915050565b610f5681610cf2565b82525050565b600060a0820190508181036000830152610f768188610f14565b90508181036020830152610f8a8187610f14565b9050610f996040830186610f4d565b610fa66060830185610f4d565b610fb36080830184610b82565b9695505050505050565b600060208284031215610fd357610fd2610ace565b5b6000610fe184828501610b21565b91505092915050565b7f4e487b7100000000000000000000000000000000000000000000000000000000600052602260045260246000fd5b6000600282049050600182168061103157607f821691505b60208210810361104457611043610fea565b5b50919050565b7f4e487b7100000000000000000000000000000000000000000000000000000000600052601160045260246000fd5b600061108482610cf2565b915061108f83610cf2565b925082820261109d81610cf2565b915082820484148315176110b4576110b361104a565b5b5092915050565b60006110c682610cf2565b91506110d183610cf2565b92508282019050808211156110e9576110e861104a565b5b92915050565b60008190508160005260206000209050919050565b60006020601f8301049050919050565b600082821b905092915050565b6000600883026111517fffffffffffffffffffffffffffffffffffffffffffffffffffffffffffffffff82611114565b61115b8683611114565b95508019841693508086168417925050509392505050565b6000819050919050565b600061119861119361118e84610cf2565b611173565b610cf2565b9050919050565b6000819050919050565b6111b28361117d565b6111c66111be8261119f565b848454611121565b825550505050565b600090565b6111db6111ce565b6111e68184846111a9565b505050565b5b8181101561120a576111ff6000826111d3565b6001810190506111ec565b5050565b601f82111561124f57611220816110ef565b61122984611104565b81016020851015611238578190505b61124c61124485611104565b8301826111eb565b50505b505050565b600082821c905092915050565b600061127260001984600802611254565b1980831691505092915050565b600061128b8383611261565b9150826002028217905092915050565b6112a482610dc7565b67ffffffffffffffff8111156112bd576112bc610bc7565b5b6112c78254611019565b6112d282828561120e565b600060209050601f83116001811461130557600084156112f3578287015190505b6112fd858261127f565b865550611365565b601f198416611313866110ef565b60005b8281101561133b57848901518255600182019150602085019450602081019050611316565b868310156113585784890151611354601f891682611261565b8355505b6001600288020188555050505b505050505050565b600060608201905081810360008301526113878186610f14565b9050818103602083015261139b8185610f14565b90506113aa6040830184610f4d565b949350505050565b7f4e6f2061637469766520636f6e73656e7420666f756e64000000000000000000600082015250565b60006113e8601783610f03565b91506113f3826113b2565b602082019050919050565b60006020820190508181036000830152611417816113db565b9050919050565b60006020820190506114336000830184610f4d565b9291505056fea2646970667358221220fb9ae125a069075261d8cd9c6d0b0506db53178e9660b84cb558eac1b19ebcf864736f6c63430008140033",
  "linkReferences": {},
  "deployedLinkReferences": {}
}