{
  "_format": "hh-sol-artifact-1",
  "contractName": "SubscriptionManager",
  "sourceName": "contracts/SubscriptionManager.sol",
  "abi": [
    {
      "inputs": [],
      "stateMutability": "nonpayable",
      "type": "constructor"
    },
    {
      "anonymous": false,
      "inputs": [
        {
          "indexed": true,
          "internalType": "address",
          "name": "company",
          "type": "address"
        },
        {
          "indexed": false,
          "internalType": "enum SubscriptionManager.Plan",
          "name": "plan",
          "type": "uint8"
        },
        {
          "indexed": false,
          "internalType": "uint256",
          "name": "expiresAt",
          "type": "uint256"
        }
      ],
      "name": "Subscribed",
      "type": "event"
    },
    {
      "anonymous": false,
      "inputs": [
        {
          "indexed": true,
          "internalType": "address",
          "name": "company",
          "type": "address"
        }
      ],
      "name": "SubscriptionExpired",
      "type": "event"
    },
    {
      "inputs": [
        {
          "internalType": "address",
          "name": "",
          "type": "address"
        }
      ],
      "name": "checksUsed",
      "outputs": [
        {
          "internalType": "uint256",
          "name": "",
          "type": "uint256"
        }
      ],
      "stateMutability": "view",
      "type": "function"
    },
    {
      "inputs": [
        {
          "internalType": "address",
          "name": "company",
          "type": "address"
        }
      ],
      "name": "getChecksRemaining",
      "outputs": [
        {
          "internalType": "uint256",
          "name": "",
          "type": "uint256"
        }
      ],
      "stateMutability": "view",
      "type": "function"
    },
    {
      "inputs": [
        {
          "internalType": "enum SubscriptionManager.Plan",
          "name": "plan",
          "type": "uint8"
        }
      ],
      "name": "getPlanLimit",
      "outputs": [
        {
          "internalType": "uint256",
          "name": "",
          "type": "uint256"
        }
      ],
      "stateMutability": "view",
      "type": "function"
    },
    {
      "inputs": [
        {
          "internalType": "enum SubscriptionManager.Plan",
          "name": "plan",
          "type": "uint8"
        }
      ],
      "name": "getPlanPrice",
      "outputs": [
        {
          "internalType": "uint256",
          "name": "",
          "type": "uint256"
        }
      ],
      "stateMutability": "view",
      "type": "function"
    },
    {
      "inputs": [
        {
          "internalType": "address",
          "name": "company",
          "type": "address"
        }
      ],
      "name": "getSubscription",
      "outputs": [
        {
          "components": [
            {
              "internalType": "enum SubscriptionManager.Plan",
              "name": "plan",
              "type": "uint8"
            },
            {
              "internalType": "uint256",
              "name": "startedAt",
              "type": "uint256"
            },
            {
              "internalType": "uint256",
              "name": "expiresAt",
              "type": "uint256"
            },
            {
              "internalType": "bool",
              "name": "isActive",
              "type": "bool"
            }
          ],
          "internalType": "struct SubscriptionManager.Subscription",
          "name": "",
          "type": "tuple"
        }
      ],
      "stateMutability": "view",
      "type": "function"
    },
    {
      "inputs": [],
      "name": "growthChecks",
      "outputs": [
        {
          "internalType": "uint256",
          "name": "",
          "type": "uint256"
        }
      ],
      "stateMutability": "view",
      "type": "function"
    },
    {
      "inputs": [],
      "name": "growthPrice",
      "outputs": [
        {
          "internalType": "uint256",
          "name": "",
          "type": "uint256"
        }
      ],
      "stateMutability": "view",
      "type": "function"
    },
    {
      "inputs": [
        {
          "internalType": "address",
          "name": "company",
          "type": "address"
        }
      ],
      "name": "isSubscribed",
      "outputs": [
        {
          "internalType": "bool",
          "name": "",
          "type": "bool"
        }
      ],
      "stateMutability": "view",
      "type": "function"
    },
    {
      "inputs": [],
      "name": "owner",
      "outputs": [
        {
          "internalType": "address",
          "name": "",
          "type": "address"
        }
      ],
      "stateMutability": "view",
      "type": "function"
    },
    {
      "inputs": [
        {
          "internalType": "address",
          "name": "company",
          "type": "address"
        }
      ],
      "name": "recordCheck",
      "outputs": [],
      "stateMutability": "nonpayable",
      "type": "function"
    },
    {
      "inputs": [],
      "name": "scaleChecks",
      "outputs": [
        {
          "internalType": "uint256",
          "name": "",
          "type": "uint256"
        }
      ],
      "stateMutability": "view",
      "type": "function"
    },
    {
      "inputs": [],
      "name": "scalePrice",
      "outputs": [
        {
          "internalType": "uint256",
          "name": "",
          "type": "uint256"
        }
      ],
      "stateMutability": "view",
      "type": "function"
    },
    {
      "inputs": [],
      "name": "starterChecks",
      "outputs": [
        {
          "internalType": "uint256",
          "name": "",
          "type": "uint256"
        }
      ],
      "stateMutability": "view",
      "type": "function"
    },
    {
      "inputs": [],
      "name": "starterPrice",
      "outputs": [
        {
          "internalType": "uint256",
          "name": "",
          "type": "uint256"
        }
      ],
      "stateMutability": "view",
      "type": "function"
    },
    {
      "inputs": [
        {
          "internalType": "enum SubscriptionManager.Plan",
          "name": "plan",
          "type": "uint8"
        }
      ],
      "name": "subscribe",
      "outputs": [],
      "stateMutability": "payable",
      "type": "function"
    },
    {
      "inputs": [
        {
          "internalType": "address",
          "name": "",
          "type": "address"
        }
      ],
      "name": "subscriptions",
      "outputs": [
        {
          "internalType": "enum SubscriptionManager.Plan",
          "name": "plan",
          "type": "uint8"
        },
        {
          "internalType": "uint256",
          "name": "startedAt",
          "type": "uint256"
        },
        {
          "internalType": "uint256",
          "name": "expiresAt",
          "type": "uint256"
        },
        {
          "internalType": "bool",
          "name": "isActive",
          "type": "bool"
        }
      ],
      "stateMutability": "view",
      "type": "function"
    },
    {
      "inputs": [
        {
          "internalType": "uint256",
          "name": "_starter",
          "type": "uint256"
        },
        {
          "internalType": "uint256",
          "name": "_growth",
          "type": "uint256"
        },
        {
          "internalType": "uint256",
          "name": "_scale",
          "type": "uint256"
        }
      ],
      "name": "updatePrices",
      "outputs": [],
      "stateMutability": "nonpayable",
      "type": "function"
    },
    {
      "inputs": [],
      "name": "withdrawFees",
      "outputs": [],
      "stateMutability": "nonpayable",
      "type": "function"
    }
  ],
  "bytecode": "0x608060405266038d7ea4c680006002556611c37937e0800060035566354a6ba7a18000600455612710600555620186a0600655620f424060075534801561004557600080fd5b50336000806101000a81548173ffffffffffffffffffffffffffffffffffffffff021916908373ffffffffffffffffffffffffffffffffffffffff160217905550611547806100956000396000f3fe6080604052600436106101095760003560e01c806355815531116100955780639a87c787116100645780639a87c7871461035e578063adcddf6c1461039b578063b92ae87c146103c6578063d20b0e8e14610403578063f046395a1461042e57610109565b8063558155311461028e57806358637f3f146102b957806364760b6f146102f65780638da5cb5b1461033357610109565b80632802d7ad116100dc5780632802d7ad146101dc5780633ed620a41461020757806344f59af414610230578063476343ee1461025b57806349c7e6391461027257610109565b80630429b3431461010e5780630cbebc241461014b5780631e5af0bd146101885780632438e43a146101b1575b600080fd5b34801561011a57600080fd5b5061013560048036038101906101309190610ef1565b61046e565b6040516101429190610f37565b60405180910390f35b34801561015757600080fd5b50610172600480360381019061016d9190610ef1565b610486565b60405161017f9190611048565b60405180910390f35b34801561019457600080fd5b506101af60048036038101906101aa9190610ef1565b610549565b005b3480156101bd57600080fd5b506101c6610630565b6040516101d39190610f37565b60405180910390f35b3480156101e857600080fd5b506101f1610636565b6040516101fe9190610f37565b60405180910390f35b34801561021357600080fd5b5061022e6004803603810190610229919061108f565b61063c565b005b34801561023c57600080fd5b506102456106e4565b6040516102529190610f37565b60405180910390f35b34801561026757600080fd5b506102706106ea565b005b61028c60048036038101906102879190611107565b61082a565b005b34801561029a57600080fd5b506102a3610a6a565b6040516102b09190610f37565b60405180910390f35b3480156102c557600080fd5b506102e060048036038101906102db9190610ef1565b610a70565b6040516102ed9190610f37565b60405180910390f35b34801561030257600080fd5b5061031d60048036038101906103189190611107565b610ba8565b60405161032a9190610f37565b60405180910390f35b34801561033f57600080fd5b50610348610c55565b6040516103559190611143565b60405180910390f35b34801561036a57600080fd5b5061038560048036038101906103809190611107565b610c79565b6040516103929190610f37565b60405180910390f35b3480156103a757600080fd5b506103b0610d26565b6040516103bd9190610f37565b60405180910390f35b3480156103d257600080fd5b506103ed60048036038101906103e89190610ef1565b610d2c565b6040516103fa919061116d565b60405180910390f35b34801561040f57600080fd5b50610418610e02565b6040516104259190610f37565b60405180910390f35b34801561043a57600080fd5b5061045560048036038101906104509190610ef1565b610e08565b6040516104659493929190611197565b60405180910390f35b60086020528060005260406000206000915090505481565b61048e610e52565b600160008373ffffffffffffffffffffffffffffffffffffffff1673ffffffffffffffffffffffffffffffffffffffff1681526020019081526020016000206040518060800160405290816000820160009054906101000a900460ff1660038111156104fd576104fc610f52565b5b600381111561050f5761050e610f52565b5b815260200160018201548152602001600282015481526020016003820160009054906101000a900460ff1615151515815250509050919050565b600160008273ffffffffffffffffffffffffffffffffffffffff1673ffffffffffffffffffffffffffffffffffffffff16815260200190815260200160002060030160009054906101000a900460ff166105d8576040517f08c379a00000000000000000000000000000000000000000000000000000000081526004016105cf90611239565b60405180910390fd5b600860008273ffffffffffffffffffffffffffffffffffffffff1673ffffffffffffffffffffffffffffffffffffffff168152602001908152602001600020600081548092919061062890611288565b919050555050565b60075481565b60025481565b60008054906101000a900473ffffffffffffffffffffffffffffffffffffffff1673ffffffffffffffffffffffffffffffffffffffff163373ffffffffffffffffffffffffffffffffffffffff16146106ca576040517f08c379a00000000000000000000000000000000000000000000000000000000081526004016106c19061131c565b60405180910390fd5b826002819055508160038190555080600481905550505050565b60055481565b60008054906101000a900473ffffffffffffffffffffffffffffffffffffffff1673ffffffffffffffffffffffffffffffffffffffff163373ffffffffffffffffffffffffffffffffffffffff1614610778576040517f08c379a000000000000000000000000000000000000000000000000000000000815260040161076f9061131c565b60405180910390fd5b6000479050600081116107c0576040517f08c379a00000000000000000000000000000000000000000000000000000000081526004016107b790611388565b60405180910390fd5b60008054906101000a900473ffffffffffffffffffffffffffffffffffffffff1673ffffffffffffffffffffffffffffffffffffffff166108fc829081150290604051600060405180830381858888f19350505050158015610826573d6000803e3d6000fd5b5050565b6000600381111561083e5761083d610f52565b5b81600381111561085157610850610f52565b5b03610891576040517f08c379a0000000000000000000000000000000000000000000000000000000008152600401610888906113f4565b60405180910390fd5b600061089c82610ba8565b9050803410156108e1576040517f08c379a00000000000000000000000000000000000000000000000000000000081526004016108d890611460565b60405180910390fd5b600062278d00426108f29190611480565b9050604051806080016040528084600381111561091257610911610f52565b5b815260200142815260200182815260200160011515815250600160003373ffffffffffffffffffffffffffffffffffffffff1673ffffffffffffffffffffffffffffffffffffffff16815260200190815260200160002060008201518160000160006101000a81548160ff0219169083600381111561099457610993610f52565b5b0217905550602082015181600101556040820151816002015560608201518160030160006101000a81548160ff0219169083151502179055509050506000600860003373ffffffffffffffffffffffffffffffffffffffff1673ffffffffffffffffffffffffffffffffffffffff168152602001908152602001600020819055503373ffffffffffffffffffffffffffffffffffffffff167f044f95a2d17727b5b87e4f23d70278b59a2b0b285289cc9021cac8cdba4797b78483604051610a5d9291906114b4565b60405180910390a2505050565b60035481565b600080600160008473ffffffffffffffffffffffffffffffffffffffff1673ffffffffffffffffffffffffffffffffffffffff1681526020019081526020016000206040518060800160405290816000820160009054906101000a900460ff166003811115610ae257610ae1610f52565b5b6003811115610af457610af3610f52565b5b815260200160018201548152602001600282015481526020016003820160009054906101000a900460ff16151515158152505090506000610b388260000151610c79565b90506000600860008673ffffffffffffffffffffffffffffffffffffffff1673ffffffffffffffffffffffffffffffffffffffff168152602001908152602001600020549050818110610b915760009350505050610ba3565b8082610b9d91906114dd565b93505050505b919050565b600060016003811115610bbe57610bbd610f52565b5b826003811115610bd157610bd0610f52565b5b03610be0576002549050610c50565b60026003811115610bf457610bf3610f52565b5b826003811115610c0757610c06610f52565b5b03610c16576003549050610c50565b600380811115610c2957610c28610f52565b5b826003811115610c3c57610c3b610f52565b5b03610c4b576004549050610c50565b600090505b919050565b60008054906101000a900473ffffffffffffffffffffffffffffffffffffffff1681565b600060016003811115610c8f57610c8e610f52565b5b826003811115610ca257610ca1610f52565b5b03610cb1576005549050610d21565b60026003811115610cc557610cc4610f52565b5b826003811115610cd857610cd7610f52565b5b03610ce7576006549050610d21565b600380811115610cfa57610cf9610f52565b5b826003811115610d0d57610d0c610f52565b5b03610d1c576007549050610d21565b600090505b919050565b60065481565b600080600160008473ffffffffffffffffffffffffffffffffffffffff1673ffffffffffffffffffffffffffffffffffffffff1681526020019081526020016000206040518060800160405290816000820160009054906101000a900460ff166003811115610d9e57610d9d610f52565b5b6003811115610db057610daf610f52565b5b815260200160018201548152602001600282015481526020016003820160009054906101000a900460ff161515151581525050905080606001518015610dfa575080604001514211155b915050919050565b60045481565b60016020528060005260406000206000915090508060000160009054906101000a900460ff16908060010154908060020154908060030160009054906101000a900460ff16905084565b604051806080016040528060006003811115610e7157610e70610f52565b5b815260200160008152602001600081526020016000151581525090565b600080fd5b600073ffffffffffffffffffffffffffffffffffffffff82169050919050565b6000610ebe82610e93565b9050919050565b610ece81610eb3565b8114610ed957600080fd5b50565b600081359050610eeb81610ec5565b92915050565b600060208284031215610f0757610f06610e8e565b5b6000610f1584828501610edc565b91505092915050565b6000819050919050565b610f3181610f1e565b82525050565b6000602082019050610f4c6000830184610f28565b92915050565b7f4e487b7100000000000000000000000000000000000000000000000000000000600052602160045260246000fd5b60048110610f9257610f91610f52565b5b50565b6000819050610fa382610f81565b919050565b6000610fb382610f95565b9050919050565b610fc381610fa8565b82525050565b610fd281610f1e565b82525050565b60008115159050919050565b610fed81610fd8565b82525050565b6080820160008201516110096000850182610fba565b50602082015161101c6020850182610fc9565b50604082015161102f6040850182610fc9565b5060608201516110426060850182610fe4565b50505050565b600060808201905061105d6000830184610ff3565b92915050565b61106c81610f1e565b811461107757600080fd5b50565b60008135905061108981611063565b92915050565b6000806000606084860312156110a8576110a7610e8e565b5b60006110b68682870161107a565b93505060206110c78682870161107a565b92505060406110d88682870161107a565b9150509250925092565b600481106110ef57600080fd5b50565b600081359050611101816110e2565b92915050565b60006020828403121561111d5761111c610e8e565b5b600061112b848285016110f2565b91505092915050565b61113d81610eb3565b82525050565b60006020820190506111586000830184611134565b92915050565b61116781610fd8565b82525050565b6000602082019050611182600083018461115e565b92915050565b61119181610fa8565b82525050565b60006080820190506111ac6000830187611188565b6111b96020830186610f28565b6111c66040830185610f28565b6111d3606083018461115e565b95945050505050565b600082825260208201905092915050565b7f4e6f2061637469766520737562736372697074696f6e00000000000000000000600082015250565b60006112236016836111dc565b915061122e826111ed565b602082019050919050565b6000602082019050818103600083015261125281611216565b9050919050565b7f4e487b7100000000000000000000000000000000000000000000000000000000600052601160045260246000fd5b600061129382610f1e565b91507fffffffffffffffffffffffffffffffffffffffffffffffffffffffffffffffff82036112c5576112c4611259565b5b600182019050919050565b7f4e6f7420746865206f776e657200000000000000000000000000000000000000600082015250565b6000611306600d836111dc565b9150611311826112d0565b602082019050919050565b60006020820190508181036000830152611335816112f9565b9050919050565b7f4e6f206665657320746f20776974686472617700000000000000000000000000600082015250565b60006113726013836111dc565b915061137d8261133c565b602082019050919050565b600060208201905081810360008301526113a181611365565b9050919050565b7f496e76616c696420706c616e0000000000000000000000000000000000000000600082015250565b60006113de600c836111dc565b91506113e9826113a8565b602082019050919050565b6000602082019050818103600083015261140d816113d1565b9050919050565b7f496e73756666696369656e74207061796d656e74000000000000000000000000600082015250565b600061144a6014836111dc565b915061145582611414565b602082019050919050565b600060208201905081810360008301526114798161143d565b9050919050565b600061148b82610f1e565b915061149683610f1e565b92508282019050808211156114ae576114ad611259565b5b92915050565b60006040820190506114c96000830185611188565b6114d66020830184610f28565b9392505050565b60006114e882610f1e565b91506114f383610f1e565b925082820390508181111561150b5761150a611259565b5b9291505056fea26469706673582212202304bdd7751f089818b3233e492c1c0c234c60921caffece7cce2b0225b303dd64736f6c63430008140033",
  "linkReferences": {},
  "deployedLinkReferences": {}
}