{
  "_format": "hh-sol-artifact-1",
  "contractName": "DataAccessEscrow",
  "sourceName": "contracts/DataAccessEscrow.sol",
  "abi": [
    {
      "inputs": [
        {
          "internalType": "address",
          "name": "_consentRegistry",
          "type": "address"
        }
      ],
      "stateMutability": "nonpayable",
      "type": "constructor"
    },
    {
      "anonymous": false,
      "inputs": [
        {
          "indexed": true,
          "internalType": "uint256",
          "name": "depositId",
          "type": "uint256"
        },
        {
          "indexed": true,
          "internalType": "address",
          "name": "company",
          "type": "address"
        },
        {
          "indexed": true,
          "internalType": "address",
          "name": "user",
          "type": "address"
        },
        {
          "indexed": false,
          "internalType": "uint256",
          "name": "amount",
          "type": "uint256"
        }
      ],
      "name": "FeeDeposited",
      "type": "event"
    },
    {
      "anonymous": false,
      "inputs": [
        {
          "indexed": true,
          "internalType": "uint256",
          "name": "depositId",
          "type": "uint256"
        },
        {
          "indexed": true,
          "internalType": "address",
          "name": "company",
          "type": "address"
        },
        {
          "indexed": false,
          "internalType": "uint256",
          "name": "amount",
          "type": "uint256"
        }
      ],
      "name": "PaymentRefunded",
      "type": "event"
    },
    {
      "anonymous": false,
      "inputs": [
        {
          "indexed": true,
          "internalType": "uint256",
          "name": "depositId",
          "type": "uint256"
        },
        {
          "indexed": true,
          "internalType": "address",
          "name": "user",
          "type": "address"
        },
        {
          "indexed": false,
          "internalType": "uint256",
          "name": "userAmount",
          "type": "uint256"
        },
        {
          "indexed": false,
          "internalType": "uint256",
          "name": "platformAmount",
          "type": "uint256"
        }
      ],
      "name": "PaymentReleased",
      "type": "event"
    },
    {
      "inputs": [],
      "name": "consentRegistry",
      "outputs": [
        {
          "internalType": "contract ConsentRegistry",
          "name": "",
          "type": "address"
        }
      ],
      "stateMutability": "view",
      "type": "function"
    },
    {
      "inputs": [],
      "name": "depositCount",
      "outputs": [
        {
          "internalType": "uint256",
          "name": "",
          "type": "uint256"
        }
      ],
      "stateMutability": "view",
      "type": "function"
    },
    {
      "inputs": [
        {
          "internalType": "address",
          "name": "user",
          "type": "address"
        }
      ],
      "name": "depositFee",
      "outputs": [],
      "stateMutability": "payable",
      "type": "function"
    },
    {
      "inputs": [
        {
          "internalType": "uint256",
          "name": "",
          "type": "uint256"
        }
      ],
      "name": "deposits",
      "outputs": [
        {
          "internalType": "address",
          "name": "company",
          "type": "address"
        },
        {
          "internalType": "address",
          "name": "user",
          "type": "address"
        },
        {
          "internalType": "uint256",
          "name": "amount",
          "type": "uint256"
        },
        {
          "internalType": "bool",
          "name": "released",
          "type": "bool"
        },
        {
          "internalType": "bool",
          "name": "refunded",
          "type": "bool"
        }
      ],
      "stateMutability": "view",
      "type": "function"
    },
    {
      "inputs": [
        {
          "internalType": "address",
          "name": "user",
          "type": "address"
        }
      ],
      "name": "getEarnings",
      "outputs": [
        {
          "internalType": "uint256",
          "name": "",
          "type": "uint256"
        }
      ],
      "stateMutability": "view",
      "type": "function"
    },
    {
      "inputs": [],
      "name": "owner",
      "outputs": [
        {
          "internalType": "address",
          "name": "",
          "type": "address"
        }
      ],
      "stateMutability": "view",
      "type": "function"
    },
    {
      "inputs": [],
      "name": "platformEarnings",
      "outputs": [
        {
          "internalType": "uint256",
          "name": "",
          "type": "uint256"
        }
      ],
      "stateMutability": "view",
      "type": "function"
    },
    {
      "inputs": [],
      "name": "platformFeePercent",
      "outputs": [
        {
          "internalType": "uint256",
          "name": "",
          "type": "uint256"
        }
      ],
      "stateMutability": "view",
      "type": "function"
    },
    {
      "inputs": [
        {
          "internalType": "uint256",
          "name": "newFeePercent",
          "type": "uint256"
        }
      ],
      "name": "updatePlatformFee",
      "outputs": [],
      "stateMutability": "nonpayable",
      "type": "function"
    },
    {
      "inputs": [
        {
          "internalType": "address",
          "name": "",
          "type": "address"
        }
      ],
      "name": "userEarnings",
      "outputs": [
        {
          "internalType": "uint256",
          "name": "",
          "type": "uint256"
        }
      ],
      "stateMutability": "view",
      "type": "function"
    },
    {
      "inputs": [],
      "name": "withdrawEarnings",
      "outputs": [],
      "stateMutability": "nonpayable",
      "type": "function"
    },
    {
      "inputs": [],
      "name": "withdrawPlatformFees",
      "outputs": [],
      "stateMutability": "nonpayable",
      "type": "function"
    }
  ],
  "bytecode": "0x608060405260326002553480156200001657600080fd5b50604051620014f9380380620014f983398181016040528101906200003c91906200012e565b806000806101000a81548173ffffffffffffffffffffffffffffffffffffffff021916908373ffffffffffffffffffffffffffffffffffffffff16021790555033600160006101000a81548173ffffffffffffffffffffffffffffffffffffffff021916908373ffffffffffffffffffffffffffffffffffffffff1602179055505062000160565b600080fd5b600073ffffffffffffffffffffffffffffffffffffffff82169050919050565b6000620000f682620000c9565b9050919050565b6200010881620000e9565b81146200011457600080fd5b50565b6000815190506200012881620000fd565b92915050565b600060208284031215620001475762000146620000c4565b5b6000620001578482850162000117565b91505092915050565b61138980620001706000396000f3fe6080604052600436106100a75760003560e01c8063b02c43d011610064578063b02c43d0146101af578063b73c6ce9146101f0578063be820aa214610207578063d0b7830b14610232578063d8ba602114610249578063db89cf5b14610286576100a7565b8063131b9c04146100ac5780632dfdf0b5146100e957806380352cfd146101145780638c639a85146101305780638da5cb5b1461015b578063aa0b598814610186575b600080fd5b3480156100b857600080fd5b506100d360048036038101906100ce9190610d2e565b6102b1565b6040516100e09190610d74565b60405180910390f35b3480156100f557600080fd5b506100fe6102fa565b60405161010b9190610d74565b60405180910390f35b61012e60048036038101906101299190610d2e565b610300565b005b34801561013c57600080fd5b5061014561051a565b6040516101529190610d74565b60405180910390f35b34801561016757600080fd5b50610170610520565b60405161017d9190610d9e565b60405180910390f35b34801561019257600080fd5b506101ad60048036038101906101a89190610de5565b610546565b005b3480156101bb57600080fd5b506101d660048036038101906101d19190610de5565b610624565b6040516101e7959493929190610e2d565b60405180910390f35b3480156101fc57600080fd5b506102056106b4565b005b34801561021357600080fd5b5061021c6107ca565b6040516102299190610d74565b60405180910390f35b34801561023e57600080fd5b506102476107d0565b005b34801561025557600080fd5b50610270600480360381019061026b9190610d2e565b61091e565b60405161027d9190610d74565b60405180910390f35b34801561029257600080fd5b5061029b610936565b6040516102a89190610edf565b60405180910390f35b6000600560008373ffffffffffffffffffffffffffffffffffffffff1673ffffffffffffffffffffffffffffffffffffffff168152602001908152602001600020549050919050565b60045481565b60003411610343576040517f08c379a000000000000000000000000000000000000000000000000000000000815260040161033a90610f57565b60405180910390fd5b6004600081548092919061035690610fa6565b91905055506040518060a001604052803373ffffffffffffffffffffffffffffffffffffffff1681526020018273ffffffffffffffffffffffffffffffffffffffff1681526020013481526020016000151581526020016000151581525060036000600454815260200190815260200160002060008201518160000160006101000a81548173ffffffffffffffffffffffffffffffffffffffff021916908373ffffffffffffffffffffffffffffffffffffffff16021790555060208201518160010160006101000a81548173ffffffffffffffffffffffffffffffffffffffff021916908373ffffffffffffffffffffffffffffffffffffffff1602179055506040820151816002015560608201518160030160006101000a81548160ff02191690831515021790555060808201518160030160016101000a81548160ff0219169083151502179055509050508073ffffffffffffffffffffffffffffffffffffffff163373ffffffffffffffffffffffffffffffffffffffff166004547fa0dfb68ee2d253e0355f81a47ecb93667680096309b4d4da86e6e09ffb29228e346040516105049190610d74565b60405180910390a461051760045461095a565b50565b60025481565b600160009054906101000a900473ffffffffffffffffffffffffffffffffffffffff1681565b600160009054906101000a900473ffffffffffffffffffffffffffffffffffffffff1673ffffffffffffffffffffffffffffffffffffffff163373ffffffffffffffffffffffffffffffffffffffff16146105d6576040517f08c379a00000000000000000000000000000000000000000000000000000000081526004016105cd9061103a565b60405180910390fd5b603281111561061a576040517f08c379a0000000000000000000000000000000000000000000000000000000008152600401610611906110a6565b60405180910390fd5b8060028190555050565b60036020528060005260406000206000915090508060000160009054906101000a900473ffffffffffffffffffffffffffffffffffffffff16908060010160009054906101000a900473ffffffffffffffffffffffffffffffffffffffff16908060020154908060030160009054906101000a900460ff16908060030160019054906101000a900460ff16905085565b6000600560003373ffffffffffffffffffffffffffffffffffffffff1673ffffffffffffffffffffffffffffffffffffffff1681526020019081526020016000205490506000811161073b576040517f08c379a000000000000000000000000000000000000000000000000000000000815260040161073290611112565b60405180910390fd5b6000600560003373ffffffffffffffffffffffffffffffffffffffff1673ffffffffffffffffffffffffffffffffffffffff168152602001908152602001600020819055503373ffffffffffffffffffffffffffffffffffffffff166108fc829081150290604051600060405180830381858888f193505050501580156107c6573d6000803e3d6000fd5b5050565b60065481565b600160009054906101000a900473ffffffffffffffffffffffffffffffffffffffff1673ffffffffffffffffffffffffffffffffffffffff163373ffffffffffffffffffffffffffffffffffffffff1614610860576040517f08c379a00000000000000000000000000000000000000000000000000000000081526004016108579061103a565b60405180910390fd5b60006006549050600081116108aa576040517f08c379a00000000000000000000000000000000000000000000000000000000081526004016108a19061117e565b60405180910390fd5b6000600681905550600160009054906101000a900473ffffffffffffffffffffffffffffffffffffffff1673ffffffffffffffffffffffffffffffffffffffff166108fc829081150290604051600060405180830381858888f1935050505015801561091a573d6000803e3d6000fd5b5050565b60056020528060005260406000206000915090505481565b60008054906101000a900473ffffffffffffffffffffffffffffffffffffffff1681565b600060036000838152602001908152602001600020905060008060009054906101000a900473ffffffffffffffffffffffffffffffffffffffff1673ffffffffffffffffffffffffffffffffffffffff16631ab64e4b8360010160009054906101000a900473ffffffffffffffffffffffffffffffffffffffff168460000160009054906101000a900473ffffffffffffffffffffffffffffffffffffffff166040518363ffffffff1660e01b8152600401610a1792919061119e565b602060405180830381865afa158015610a34573d6000803e3d6000fd5b505050506040513d601f19601f82011682018060405250810190610a5891906111f3565b90508015610bc257600060646002548460020154610a769190611220565b610a809190611291565b90506000818460020154610a9491906112c2565b905080600560008660010160009054906101000a900473ffffffffffffffffffffffffffffffffffffffff1673ffffffffffffffffffffffffffffffffffffffff1673ffffffffffffffffffffffffffffffffffffffff1681526020019081526020016000206000828254610b0991906112f6565b925050819055508160066000828254610b2291906112f6565b9250508190555060018460030160006101000a81548160ff0219169083151502179055508360010160009054906101000a900473ffffffffffffffffffffffffffffffffffffffff1673ffffffffffffffffffffffffffffffffffffffff16857f8cdc8dc08e54a4e57f52077ecf1b4c508758513439cae2aa325dcc85b922fca88385604051610bb392919061132a565b60405180910390a35050610cc6565b60018260030160016101000a81548160ff0219169083151502179055508160000160009054906101000a900473ffffffffffffffffffffffffffffffffffffffff1673ffffffffffffffffffffffffffffffffffffffff166108fc83600201549081150290604051600060405180830381858888f19350505050158015610c4d573d6000803e3d6000fd5b508160000160009054906101000a900473ffffffffffffffffffffffffffffffffffffffff1673ffffffffffffffffffffffffffffffffffffffff16837fe89ec1881a76229445bcd179b8c4b24f9edc7ddd87d07fb3b19c67ae9c6e27cc8460020154604051610cbd9190610d74565b60405180910390a35b505050565b600080fd5b600073ffffffffffffffffffffffffffffffffffffffff82169050919050565b6000610cfb82610cd0565b9050919050565b610d0b81610cf0565b8114610d1657600080fd5b50565b600081359050610d2881610d02565b92915050565b600060208284031215610d4457610d43610ccb565b5b6000610d5284828501610d19565b91505092915050565b6000819050919050565b610d6e81610d5b565b82525050565b6000602082019050610d896000830184610d65565b92915050565b610d9881610cf0565b82525050565b6000602082019050610db36000830184610d8f565b92915050565b610dc281610d5b565b8114610dcd57600080fd5b50565b600081359050610ddf81610db9565b92915050565b600060208284031215610dfb57610dfa610ccb565b5b6000610e0984828501610dd0565b91505092915050565b60008115159050919050565b610e2781610e12565b82525050565b600060a082019050610e426000830188610d8f565b610e4f6020830187610d8f565b610e5c6040830186610d65565b610e696060830185610e1e565b610e766080830184610e1e565b9695505050505050565b6000819050919050565b6000610ea5610ea0610e9b84610cd0565b610e80565b610cd0565b9050919050565b6000610eb782610e8a565b9050919050565b6000610ec982610eac565b9050919050565b610ed981610ebe565b82525050565b6000602082019050610ef46000830184610ed0565b92915050565b600082825260208201905092915050565b7f466565206d7573742062652067726561746572207468616e2030000000000000600082015250565b6000610f41601a83610efa565b9150610f4c82610f0b565b602082019050919050565b60006020820190508181036000830152610f7081610f34565b9050919050565b7f4e487b7100000000000000000000000000000000000000000000000000000000600052601160045260246000fd5b6000610fb182610d5b565b91507fffffffffffffffffffffffffffffffffffffffffffffffffffffffffffffffff8203610fe357610fe2610f77565b5b600182019050919050565b7f4e6f7420746865206f776e657200000000000000000000000000000000000000600082015250565b6000611024600d83610efa565b915061102f82610fee565b602082019050919050565b6000602082019050818103600083015261105381611017565b9050919050565b7f4665652063616e6e6f7420657863656564203530250000000000000000000000600082015250565b6000611090601583610efa565b915061109b8261105a565b602082019050919050565b600060208201905081810360008301526110bf81611083565b9050919050565b7f4e6f206561726e696e677320746f207769746864726177000000000000000000600082015250565b60006110fc601783610efa565b9150611107826110c6565b602082019050919050565b6000602082019050818103600083015261112b816110ef565b9050919050565b7f4e6f20706c6174666f726d206665657320746f20776974686472617700000000600082015250565b6000611168601c83610efa565b915061117382611132565b602082019050919050565b600060208201905081810360008301526111978161115b565b9050919050565b60006040820190506111b36000830185610d8f565b6111c06020830184610d8f565b9392505050565b6111d081610e12565b81146111db57600080fd5b50565b6000815190506111ed816111c7565b92915050565b60006020828403121561120957611208610ccb565b5b6000611217848285016111de565b91505092915050565b600061122b82610d5b565b915061123683610d5b565b925082820261124481610d5b565b9150828204841483151761125b5761125a610f77565b5b5092915050565b7f4e487b7100000000000000000000000000000000000000000000000000000000600052601260045260246000fd5b600061129c82610d5b565b91506112a783610d5b565b9250826112b7576112b6611262565b5b828204905092915050565b60006112cd82610d5b565b91506112d883610d5b565b92508282039050818111156112f0576112ef610f77565b5b92915050565b600061130182610d5b565b915061130c83610d5b565b925082820190508082111561132457611323610f77565b5b92915050565b600060408201905061133f6000830185610d65565b61134c6020830184610d65565b939250505056fea26469706673582212203ba1e8087bdd94de2baa77d651810558e9f286379582c63dbeed30a69f1e595764736f6c63430008140033",
  "linkReferences": {},
  "deployedLinkReferences": {}
}